{
  "_format": "hh-sol-artifact-1",
  "contractName": "GroupTreasury",
  "sourceName": "contracts/GroupTreasury.sol",
  "abi": [
    {
      "inputs": [
        {
          "internalType": "string",
          "name": "_groupName",
          "type": "string"
        },
        {
          "internalType": "address",
          "name": "_creator",
          "type": "address"
        },
        {
          "internalType": "string",
          "name": "_creatorNickname",
          "type": "string"
        }
      ],
      "stateMutability": "nonpayable",
      "type": "constructor"
    },
    {
      "inputs": [],
      "name": "EnforcedPause",
      "type": "error"
    },
    {
      "inputs": [],
      "name": "ExpectedPause",
      "type": "error"
    },
    {
      "inputs": [
        {
          "internalType": "address",
          "name": "owner",
          "type": "address"
        }
      ],
      "name": "OwnableInvalidOwner",
      "type": "error"
    },
    {
      "inputs": [
        {
          "internalType": "address",
          "name": "account",
          "type": "address"
        }
      ],
      "name": "OwnableUnauthorizedAccount",
      "type": "error"
    },
    {
      "inputs": [],
      "name": "ReentrancyGuardReentrantCall",
      "type": "error"
    },
    {
      "anonymous": false,
      "inputs": [
        {
          "indexed": true,
          "internalType": "address",
          "name": "debtor",
          "type": "address"
        },
        {
          "indexed": true,
          "internalType": "address",
          "name": "creditor",
          "type": "address"
        },
        {
          "indexed": false,
          "internalType": "uint256",
          "name": "amount",
          "type": "uint256"
        },
        {
          "indexed": false,
          "internalType": "uint256",
          "name": "settlementId",
          "type": "uint256"
        }
      ],
      "name": "DebtSettled",
      "type": "event"
    },
    {
      "anonymous": false,
      "inputs": [
        {
          "indexed": true,
          "internalType": "address",
          "name": "sender",
          "type": "address"
        },
        {
          "indexed": false,
          "internalType": "uint256",
          "name": "amount",
          "type": "uint256"
        },
        {
          "indexed": false,
          "internalType": "uint256",
          "name": "timestamp",
          "type": "uint256"
        }
      ],
      "name": "ETHReceived",
      "type": "event"
    },
    {
      "anonymous": false,
      "inputs": [
        {
          "indexed": true,
          "internalType": "uint256",
          "name": "expenseId",
          "type": "uint256"
        },
        {
          "indexed": true,
          "internalType": "address",
          "name": "paidBy",
          "type": "address"
        },
        {
          "indexed": false,
          "internalType": "uint256",
          "name": "amount",
          "type": "uint256"
        },
        {
          "indexed": false,
          "internalType": "string",
          "name": "description",
          "type": "string"
        }
      ],
      "name": "ExpenseAdded",
      "type": "event"
    },
    {
      "anonymous": false,
      "inputs": [
        {
          "indexed": true,
          "internalType": "uint256",
          "name": "expenseId",
          "type": "uint256"
        },
        {
          "indexed": false,
          "internalType": "string",
          "name": "newDescription",
          "type": "string"
        }
      ],
      "name": "ExpenseUpdated",
      "type": "event"
    },
    {
      "anonymous": false,
      "inputs": [
        {
          "indexed": false,
          "internalType": "uint256",
          "name": "timestamp",
          "type": "uint256"
        }
      ],
      "name": "GroupPaused",
      "type": "event"
    },
    {
      "anonymous": false,
      "inputs": [
        {
          "indexed": false,
          "internalType": "uint256",
          "name": "timestamp",
          "type": "uint256"
        }
      ],
      "name": "GroupUnpaused",
      "type": "event"
    },
    {
      "anonymous": false,
      "inputs": [
        {
          "indexed": true,
          "internalType": "address",
          "name": "member",
          "type": "address"
        },
        {
          "indexed": false,
          "internalType": "string",
          "name": "nickname",
          "type": "string"
        },
        {
          "indexed": false,
          "internalType": "uint256",
          "name": "timestamp",
          "type": "uint256"
        }
      ],
      "name": "MemberAdded",
      "type": "event"
    },
    {
      "anonymous": false,
      "inputs": [
        {
          "indexed": true,
          "internalType": "address",
          "name": "member",
          "type": "address"
        },
        {
          "indexed": false,
          "internalType": "uint256",
          "name": "timestamp",
          "type": "uint256"
        }
      ],
      "name": "MemberRemoved",
      "type": "event"
    },
    {
      "anonymous": false,
      "inputs": [
        {
          "indexed": true,
          "internalType": "address",
          "name": "newOwner",
          "type": "address"
        }
      ],
      "name": "OwnershipTransferRequested",
      "type": "event"
    },
    {
      "anonymous": false,
      "inputs": [
        {
          "indexed": true,
          "internalType": "address",
          "name": "previousOwner",
          "type": "address"
        },
        {
          "indexed": true,
          "internalType": "address",
          "name": "newOwner",
          "type": "address"
        }
      ],
      "name": "OwnershipTransferred",
      "type": "event"
    },
    {
      "anonymous": false,
      "inputs": [
        {
          "indexed": false,
          "internalType": "address",
          "name": "account",
          "type": "address"
        }
      ],
      "name": "Paused",
      "type": "event"
    },
    {
      "anonymous": false,
      "inputs": [
        {
          "indexed": false,
          "internalType": "address",
          "name": "account",
          "type": "address"
        }
      ],
      "name": "Unpaused",
      "type": "event"
    },
    {
      "inputs": [],
      "name": "MAX_MEMBERS",
      "outputs": [
        {
          "internalType": "uint256",
          "name": "",
          "type": "uint256"
        }
      ],
      "stateMutability": "view",
      "type": "function"
    },
    {
      "inputs": [],
      "name": "MAX_PARTICIPANTS_PER_EXPENSE",
      "outputs": [
        {
          "internalType": "uint256",
          "name": "",
          "type": "uint256"
        }
      ],
      "stateMutability": "view",
      "type": "function"
    },
    {
      "inputs": [
        {
          "internalType": "string",
          "name": "_description",
          "type": "string"
        },
        {
          "internalType": "uint256",
          "name": "_amount",
          "type": "uint256"
        },
        {
          "internalType": "address[]",
          "name": "_participants",
          "type": "address[]"
        },
        {
          "internalType": "bytes32",
          "name": "_receiptHash",
          "type": "bytes32"
        }
      ],
      "name": "addExpense",
      "outputs": [
        {
          "internalType": "uint256",
          "name": "",
          "type": "uint256"
        }
      ],
      "stateMutability": "nonpayable",
      "type": "function"
    },
    {
      "inputs": [
        {
          "internalType": "address",
          "name": "_member",
          "type": "address"
        },
        {
          "internalType": "string",
          "name": "_nickname",
          "type": "string"
        }
      ],
      "name": "addMember",
      "outputs": [],
      "stateMutability": "nonpayable",
      "type": "function"
    },
    {
      "inputs": [
        {
          "internalType": "address",
          "name": "",
          "type": "address"
        },
        {
          "internalType": "address",
          "name": "",
          "type": "address"
        }
      ],
      "name": "balances",
      "outputs": [
        {
          "internalType": "uint256",
          "name": "",
          "type": "uint256"
        }
      ],
      "stateMutability": "view",
      "type": "function"
    },
    {
      "inputs": [],
      "name": "emergencyWithdraw",
      "outputs": [],
      "stateMutability": "nonpayable",
      "type": "function"
    },
    {
      "inputs": [
        {
          "internalType": "uint256",
          "name": "",
          "type": "uint256"
        }
      ],
      "name": "expenseList",
      "outputs": [
        {
          "internalType": "uint256",
          "name": "",
          "type": "uint256"
        }
      ],
      "stateMutability": "view",
      "type": "function"
    },
    {
      "inputs": [
        {
          "internalType": "uint256",
          "name": "",
          "type": "uint256"
        }
      ],
      "name": "expenses",
      "outputs": [
        {
          "internalType": "uint256",
          "name": "id",
          "type": "uint256"
        },
        {
          "internalType": "string",
          "name": "description",
          "type": "string"
        },
        {
          "internalType": "uint256",
          "name": "totalAmount",
          "type": "uint256"
        },
        {
          "internalType": "address",
          "name": "paidBy",
          "type": "address"
        },
        {
          "internalType": "bool",
          "name": "settled",
          "type": "bool"
        },
        {
          "internalType": "uint256",
          "name": "timestamp",
          "type": "uint256"
        },
        {
          "internalType": "bytes32",
          "name": "receiptHash",
          "type": "bytes32"
        }
      ],
      "stateMutability": "view",
      "type": "function"
    },
    {
      "inputs": [],
      "name": "factory",
      "outputs": [
        {
          "internalType": "contract IExpenseFactory",
          "name": "",
          "type": "address"
        }
      ],
      "stateMutability": "view",
      "type": "function"
    },
    {
      "inputs": [
        {
          "internalType": "address",
          "name": "_member",
          "type": "address"
        }
      ],
      "name": "getBalance",
      "outputs": [
        {
          "internalType": "int256",
          "name": "",
          "type": "int256"
        }
      ],
      "stateMutability": "view",
      "type": "function"
    },
    {
      "inputs": [
        {
          "internalType": "address",
          "name": "_creditor",
          "type": "address"
        }
      ],
      "name": "getDebtTo",
      "outputs": [
        {
          "internalType": "uint256",
          "name": "",
          "type": "uint256"
        }
      ],
      "stateMutability": "view",
      "type": "function"
    },
    {
      "inputs": [
        {
          "internalType": "uint256",
          "name": "_expenseId",
          "type": "uint256"
        }
      ],
      "name": "getExpense",
      "outputs": [
        {
          "components": [
            {
              "internalType": "uint256",
              "name": "id",
              "type": "uint256"
            },
            {
              "internalType": "string",
              "name": "description",
              "type": "string"
            },
            {
              "internalType": "uint256",
              "name": "totalAmount",
              "type": "uint256"
            },
            {
              "internalType": "address",
              "name": "paidBy",
              "type": "address"
            },
            {
              "internalType": "address[]",
              "name": "participants",
              "type": "address[]"
            },
            {
              "internalType": "uint256[]",
              "name": "shares",
              "type": "uint256[]"
            },
            {
              "internalType": "bool",
              "name": "settled",
              "type": "bool"
            },
            {
              "internalType": "uint256",
              "name": "timestamp",
              "type": "uint256"
            },
            {
              "internalType": "bytes32",
              "name": "receiptHash",
              "type": "bytes32"
            }
          ],
          "internalType": "struct GroupTreasury.Expense",
          "name": "",
          "type": "tuple"
        }
      ],
      "stateMutability": "view",
      "type": "function"
    },
    {
      "inputs": [
        {
          "internalType": "uint256",
          "name": "_offset",
          "type": "uint256"
        },
        {
          "internalType": "uint256",
          "name": "_limit",
          "type": "uint256"
        }
      ],
      "name": "getExpensesPaginated",
      "outputs": [
        {
          "components": [
            {
              "internalType": "uint256",
              "name": "id",
              "type": "uint256"
            },
            {
              "internalType": "string",
              "name": "description",
              "type": "string"
            },
            {
              "internalType": "uint256",
              "name": "totalAmount",
              "type": "uint256"
            },
            {
              "internalType": "address",
              "name": "paidBy",
              "type": "address"
            },
            {
              "internalType": "address[]",
              "name": "participants",
              "type": "address[]"
            },
            {
              "internalType": "uint256[]",
              "name": "shares",
              "type": "uint256[]"
            },
            {
              "internalType": "bool",
              "name": "settled",
              "type": "bool"
            },
            {
              "internalType": "uint256",
              "name": "timestamp",
              "type": "uint256"
            },
            {
              "internalType": "bytes32",
              "name": "receiptHash",
              "type": "bytes32"
            }
          ],
          "internalType": "struct GroupTreasury.Expense[]",
          "name": "",
          "type": "tuple[]"
        },
        {
          "internalType": "uint256",
          "name": "total",
          "type": "uint256"
        }
      ],
      "stateMutability": "view",
      "type": "function"
    },
    {
      "inputs": [],
      "name": "getGroupStats",
      "outputs": [
        {
          "internalType": "uint256",
          "name": "totalMembers",
          "type": "uint256"
        },
        {
          "internalType": "uint256",
          "name": "totalExpenses",
          "type": "uint256"
        },
        {
          "internalType": "uint256",
          "name": "totalAmount",
          "type": "uint256"
        },
        {
          "internalType": "uint256",
          "name": "totalSettlements",
          "type": "uint256"
        }
      ],
      "stateMutability": "view",
      "type": "function"
    },
    {
      "inputs": [
        {
          "internalType": "address",
          "name": "_member",
          "type": "address"
        }
      ],
      "name": "getMemberInfo",
      "outputs": [
        {
          "components": [
            {
              "internalType": "address",
              "name": "wallet",
              "type": "address"
            },
            {
              "internalType": "string",
              "name": "nickname",
              "type": "string"
            },
            {
              "internalType": "uint256",
              "name": "totalOwed",
              "type": "uint256"
            },
            {
              "internalType": "uint256",
              "name": "totalOwing",
              "type": "uint256"
            },
            {
              "internalType": "bool",
              "name": "active",
              "type": "bool"
            },
            {
              "internalType": "uint256",
              "name": "joinedAt",
              "type": "uint256"
            }
          ],
          "internalType": "struct GroupTreasury.Member",
          "name": "",
          "type": "tuple"
        }
      ],
      "stateMutability": "view",
      "type": "function"
    },
    {
      "inputs": [
        {
          "internalType": "uint256",
          "name": "_offset",
          "type": "uint256"
        },
        {
          "internalType": "uint256",
          "name": "_limit",
          "type": "uint256"
        }
      ],
      "name": "getMembersPaginated",
      "outputs": [
        {
          "internalType": "address[]",
          "name": "",
          "type": "address[]"
        },
        {
          "internalType": "uint256",
          "name": "total",
          "type": "uint256"
        }
      ],
      "stateMutability": "view",
      "type": "function"
    },
    {
      "inputs": [
        {
          "internalType": "uint256",
          "name": "_settlementId",
          "type": "uint256"
        }
      ],
      "name": "getSettlement",
      "outputs": [
        {
          "components": [
            {
              "internalType": "address",
              "name": "debtor",
              "type": "address"
            },
            {
              "internalType": "address",
              "name": "creditor",
              "type": "address"
            },
            {
              "internalType": "uint256",
              "name": "amount",
              "type": "uint256"
            },
            {
              "internalType": "uint256",
              "name": "timestamp",
              "type": "uint256"
            },
            {
              "internalType": "bytes32",
              "name": "txHash",
              "type": "bytes32"
            }
          ],
          "internalType": "struct GroupTreasury.Settlement",
          "name": "",
          "type": "tuple"
        }
      ],
      "stateMutability": "view",
      "type": "function"
    },
    {
      "inputs": [],
      "name": "groupName",
      "outputs": [
        {
          "internalType": "string",
          "name": "",
          "type": "string"
        }
      ],
      "stateMutability": "view",
      "type": "function"
    },
    {
      "inputs": [
        {
          "internalType": "uint256",
          "name": "",
          "type": "uint256"
        }
      ],
      "name": "memberList",
      "outputs": [
        {
          "internalType": "address",
          "name": "",
          "type": "address"
        }
      ],
      "stateMutability": "view",
      "type": "function"
    },
    {
      "inputs": [
        {
          "internalType": "address",
          "name": "",
          "type": "address"
        }
      ],
      "name": "members",
      "outputs": [
        {
          "internalType": "address",
          "name": "wallet",
          "type": "address"
        },
        {
          "internalType": "string",
          "name": "nickname",
          "type": "string"
        },
        {
          "internalType": "uint256",
          "name": "totalOwed",
          "type": "uint256"
        },
        {
          "internalType": "uint256",
          "name": "totalOwing",
          "type": "uint256"
        },
        {
          "internalType": "bool",
          "name": "active",
          "type": "bool"
        },
        {
          "internalType": "uint256",
          "name": "joinedAt",
          "type": "uint256"
        }
      ],
      "stateMutability": "view",
      "type": "function"
    },
    {
      "inputs": [],
      "name": "owner",
      "outputs": [
        {
          "internalType": "address",
          "name": "",
          "type": "address"
        }
      ],
      "stateMutability": "view",
      "type": "function"
    },
    {
      "inputs": [],
      "name": "pauseGroup",
      "outputs": [],
      "stateMutability": "nonpayable",
      "type": "function"
    },
    {
      "inputs": [],
      "name": "paused",
      "outputs": [
        {
          "internalType": "bool",
          "name": "",
          "type": "bool"
        }
      ],
      "stateMutability": "view",
      "type": "function"
    },
    {
      "inputs": [
        {
          "internalType": "address",
          "name": "_member",
          "type": "address"
        }
      ],
      "name": "removeMember",
      "outputs": [],
      "stateMutability": "nonpayable",
      "type": "function"
    },
    {
      "inputs": [],
      "name": "renounceOwnership",
      "outputs": [],
      "stateMutability": "nonpayable",
      "type": "function"
    },
    {
      "inputs": [
        {
          "internalType": "address",
          "name": "_creditor",
          "type": "address"
        }
      ],
      "name": "settleDebt",
      "outputs": [],
      "stateMutability": "payable",
      "type": "function"
    },
    {
      "inputs": [
        {
          "internalType": "uint256",
          "name": "",
          "type": "uint256"
        }
      ],
      "name": "settledExpenses",
      "outputs": [
        {
          "internalType": "uint256",
          "name": "",
          "type": "uint256"
        }
      ],
      "stateMutability": "view",
      "type": "function"
    },
    {
      "inputs": [
        {
          "internalType": "uint256",
          "name": "",
          "type": "uint256"
        }
      ],
      "name": "settlements",
      "outputs": [
        {
          "internalType": "address",
          "name": "debtor",
          "type": "address"
        },
        {
          "internalType": "address",
          "name": "creditor",
          "type": "address"
        },
        {
          "internalType": "uint256",
          "name": "amount",
          "type": "uint256"
        },
        {
          "internalType": "uint256",
          "name": "timestamp",
          "type": "uint256"
        },
        {
          "internalType": "bytes32",
          "name": "txHash",
          "type": "bytes32"
        }
      ],
      "stateMutability": "view",
      "type": "function"
    },
    {
      "inputs": [
        {
          "internalType": "address",
          "name": "newOwner",
          "type": "address"
        }
      ],
      "name": "transferOwnership",
      "outputs": [],
      "stateMutability": "nonpayable",
      "type": "function"
    },
    {
      "inputs": [],
      "name": "unpauseGroup",
      "outputs": [],
      "stateMutability": "nonpayable",
      "type": "function"
    },
    {
      "inputs": [
        {
          "internalType": "uint256",
          "name": "_expenseId",
          "type": "uint256"
        },
        {
          "internalType": "string",
          "name": "_newDescription",
          "type": "string"
        }
      ],
      "name": "updateExpenseDescription",
      "outputs": [],
      "stateMutability": "nonpayable",
      "type": "function"
    },
    {
      "stateMutability": "payable",
      "type": "receive"
    }
  ],
  "bytecode": "0x60a06040523480156200001157600080fd5b5060405162003d0038038062003d008339810160408190526200003491620004c4565b6001600055816001600160a01b0381166200006a57604051631e4fbdf760e01b8152600060048201526024015b60405180910390fd5b62000075816200014e565b506000835111620000c95760405162461bcd60e51b815260206004820152601360248201527f47726f7570206e616d6520726571756972656400000000000000000000000000604482015260640162000061565b60008151116200011c5760405162461bcd60e51b815260206004820152601960248201527f43726561746f72206e69636b6e616d6520726571756972656400000000000000604482015260640162000061565b60026200012a8482620005de565b5060016003819055600b5533608052620001458282620001a0565b505050620006e7565b600180546001600160a01b038381166001600160a01b0319831681179093556040519116919082907f8be0079c531659141344cd1fd0a4f28419497f9722a3daafe3b4186f6b6457e090600090a35050565b6001600160a01b038216620001ea5760405162461bcd60e51b815260206004820152600f60248201526e496e76616c6964206164647265737360881b604482015260640162000061565b6001600160a01b0382166000908152600460208190526040909120015460ff1615620002595760405162461bcd60e51b815260206004820152601560248201527f4d656d62657220616c7265616479206578697374730000000000000000000000604482015260640162000061565b600081511180156200026d57506020815111155b620002bb5760405162461bcd60e51b815260206004820152601760248201527f496e76616c6964206e69636b6e616d65206c656e677468000000000000000000604482015260640162000061565b6040805160c0810182526001600160a01b0384811680835260208084018681526000858701819052606086018190526001608087018190524260a08801529381526004909252949020835181546001600160a01b031916931692909217825592519192909190820190620003309082620005de565b50604082810151600283015560608301516003830155608083015160048301805460ff191691151591909117905560a090920151600590910155600880546001810182556000919091527ff3f7a9fe364faab93b216da50a3214154f22a0a2b415b23a84c8169e8b636ee30180546001600160a01b0319166001600160a01b03851690811790915590517fac4f9610b174640b0a902ce555faa384cc9c9d291750f76e476f26f97bd079b490620003eb9084904290620006aa565b60405180910390a25050565b634e487b7160e01b600052604160045260246000fd5b60005b838110156200042a57818101518382015260200162000410565b50506000910152565b600082601f8301126200044557600080fd5b81516001600160401b0380821115620004625762000462620003f7565b604051601f8301601f19908116603f011681019082821181831017156200048d576200048d620003f7565b81604052838152866020858801011115620004a757600080fd5b620004ba8460208301602089016200040d565b9695505050505050565b600080600060608486031215620004da57600080fd5b83516001600160401b0380821115620004f257600080fd5b620005008783880162000433565b602087015190955091506001600160a01b03821682146200052057600080fd5b6040860151919350808211156200053657600080fd5b50620005458682870162000433565b9150509250925092565b600181811c908216806200056457607f821691505b6020821081036200058557634e487b7160e01b600052602260045260246000fd5b50919050565b601f821115620005d957600081815260208120601f850160051c81016020861015620005b45750805b601f850160051c820191505b81811015620005d557828155600101620005c0565b5050505b505050565b81516001600160401b03811115620005fa57620005fa620003f7565b62000612816200060b84546200054f565b846200058b565b602080601f8311600181146200064a5760008415620006315750858301515b600019600386901b1c1916600185901b178555620005d5565b600085815260208120601f198616915b828110156200067b578886015182559484019460019091019084016200065a565b50858210156200069a5787850151600019600388901b60f8161c191681555b5050505050600190811b01905550565b6040815260008351806040840152620006cb8160608501602088016200040d565b602083019390935250601f91909101601f191601606001919050565b6080516135f66200070a6000396000818161070e0152611e9001526135f66000f3fe6080604052600436106101dc5760003560e01c80638bd1e67811610102578063c23f001f11610095578063eb48571f11610064578063eb48571f1461075a578063ebf301e81461077a578063f2fde38b1461079a578063f8b2cb4f146107ba57600080fd5b8063c23f001f146106c4578063c45a0155146106fc578063db2e21bc14610730578063ea0e35b11461074557600080fd5b8063af4afe0a116100d1578063af4afe0a1461063c578063b307fc6d1461066f578063b8bee3001461068f578063c127c247146106a457600080fd5b80638bd1e678146105a95780638da5cb5b146105d7578063ab26c7c614610609578063adf298c81461062957600080fd5b80635c975abb1161017a578063715018a611610149578063715018a614610517578063735e5db61461052c578063783cec80146105595780637e661bc81461057b57600080fd5b80635c975abb1461044f5780635f1231ea1461047957806362cc0f39146104a6578063687b6393146104c657600080fd5b80630b1ca49a116101b65780630b1ca49a1461037a578063481306eb1461039a5780634c582380146103cf5780635768ec681461043a57600080fd5b806307fd5ce81461029f57806308ae4b0c146102b657806308df7dc8146102f157600080fd5b3661029a57336000908152600460208190526040909120015460ff168061020d57506001546001600160a01b031633145b61025e5760405162461bcd60e51b815260206004820152601960248201527f4f6e6c79206d656d626572732063616e2073656e64204554480000000000000060448201526064015b60405180910390fd5b6040805134815242602082015233917f7dd768b8b37911c0bb413d9cf56fcb57b286f5def4c57d475c8abdd6737b7e1e910160405180910390a2005b600080fd5b3480156102ab57600080fd5b506102b46107da565b005b3480156102c257600080fd5b506102d66102d1366004612d42565b610820565b6040516102e896959493929190612daa565b60405180910390f35b3480156102fd57600080fd5b5061034761030c366004612df3565b600760205260009081526040902080546001820154600283015460038401546004909401546001600160a01b03938416949390921692909185565b604080516001600160a01b039687168152959094166020860152928401919091526060830152608082015260a0016102e8565b34801561038657600080fd5b506102b4610395366004612d42565b6108ee565b3480156103a657600080fd5b506103af610bde565b6040805194855260208501939093529183015260608201526080016102e8565b3480156103db57600080fd5b506103ef6103ea366004612df3565b610c61565b6040516102e8919081516001600160a01b0390811682526020808401519091169082015260408083015190820152606080830151908201526080918201519181019190915260a00190565b34801561044657600080fd5b506102b4610d3c565b34801561045b57600080fd5b50600154600160a01b900460ff1660405190151581526020016102e8565b34801561048557600080fd5b50610499610494366004612d42565b610d7c565b6040516102e89190612e0c565b3480156104b257600080fd5b506102b46104c1366004612f27565b610f18565b3480156104d257600080fd5b506105096104e1366004612d42565b3360009081526006602090815260408083206001600160a01b03949094168352929052205490565b6040519081526020016102e8565b34801561052357600080fd5b506102b4611166565b34801561053857600080fd5b5061054c610547366004612df3565b61117a565b6040516102e8919061308f565b34801561056557600080fd5b5061056e6113b0565b6040516102e891906130a2565b34801561058757600080fd5b5061059b6105963660046130b5565b61143e565b6040516102e89291906130d7565b3480156105b557600080fd5b506105c96105c43660046130b5565b61174c565b6040516102e8929190613140565b3480156105e357600080fd5b506001546001600160a01b03165b6040516001600160a01b0390911681526020016102e8565b34801561061557600080fd5b50610509610624366004612df3565b611861565b6102b4610637366004612d42565b611882565b34801561064857600080fd5b5061065c610657366004612df3565b611ce2565b6040516102e89796959493929190613162565b34801561067b57600080fd5b506105f161068a366004612df3565b611db3565b34801561069b57600080fd5b50610509601481565b3480156106b057600080fd5b506102b46106bf3660046131ae565b611ddd565b3480156106d057600080fd5b506105096106df3660046131e6565b600660209081526000928352604080842090915290825290205481565b34801561070857600080fd5b506105f17f000000000000000000000000000000000000000000000000000000000000000081565b34801561073c57600080fd5b506102b4611eeb565b34801561075157600080fd5b50610509603281565b34801561076657600080fd5b50610509610775366004613219565b612055565b34801561078657600080fd5b50610509610795366004612df3565b612794565b3480156107a657600080fd5b506102b46107b5366004612d42565b6127a4565b3480156107c657600080fd5b506105096107d5366004612d42565b6127df565b6107e2612870565b6107ea61289d565b6040514281527fb5a81006f0fbbe8840c33bd9e50f9aaf88f69b1cd74a626748ba871ddf982d32906020015b60405180910390a1565b600460205260009081526040902080546001820180546001600160a01b03909216929161084c906132f9565b80601f0160208091040260200160405190810160405280929190818152602001828054610878906132f9565b80156108c55780601f1061089a576101008083540402835291602001916108c5565b820191906000526020600020905b8154815290600101906020018083116108a857829003601f168201915b5050506002840154600385015460048601546005909601549495919490935060ff909116915086565b6108f6612870565b806001600160a01b03811661091d5760405162461bcd60e51b81526004016102559061332d565b6001600160a01b0381166000908152600460208190526040909120015460ff1661097d5760405162461bcd60e51b81526020600482015260116024820152704d656d626572206e6f742061637469766560781b6044820152606401610255565b6001546001600160a01b03166001600160a01b0316826001600160a01b0316036109df5760405162461bcd60e51b815260206004820152601360248201527221b0b73737ba103932b6b7bb329037bbb732b960691b6044820152606401610255565b6001600160a01b038216600090815260046020526040902060020154158015610a2157506001600160a01b038216600090815260046020526040902060030154155b610a6d5760405162461bcd60e51b815260206004820152601f60248201527f4d656d62657220686173206f75747374616e64696e672062616c616e636573006044820152606401610255565b6001600160a01b0382166000908152600460208190526040822001805460ff191690555b600854811015610b9657826001600160a01b031660088281548110610ab857610ab8613356565b6000918252602090912001546001600160a01b031603610b845760088054610ae290600190613382565b81548110610af257610af2613356565b600091825260209091200154600880546001600160a01b039092169183908110610b1e57610b1e613356565b9060005260206000200160006101000a8154816001600160a01b0302191690836001600160a01b031602179055506008805480610b5d57610b5d613395565b600082815260209020810160001990810180546001600160a01b0319169055019055610b96565b80610b8e816133ab565b915050610a91565b50816001600160a01b03167f3ac963493df564de734d98633f1145d21512e282ba4c02d3c1011119bf7f286242604051610bd291815260200190565b60405180910390a25050565b600854600954600b546000908190610bf890600190613382565b905060005b600954811015610c5a576005600060098381548110610c1e57610c1e613356565b906000526020600020015481526020019081526020016000206002015483610c4691906133c4565b925080610c52816133ab565b915050610bfd565b5090919293565b6040805160a081018252600080825260208201819052918101829052606081018290526080810191909152600082118015610c9d5750600b5482105b610ce15760405162461bcd60e51b8152602060048201526015602482015274125b9d985b1a59081cd95d1d1b195b595b9d081251605a1b6044820152606401610255565b50600090815260076020908152604091829020825160a08101845281546001600160a01b0390811682526001830154169281019290925260028101549282019290925260038201546060820152600490910154608082015290565b610d44612870565b610d4c6128ed565b6040514281527fb1d2425e73d9a7882dc53cebc5168b37f785c0b8548a07cc190ad6ebdb53aba290602001610816565b610dc06040518060c0016040528060006001600160a01b03168152602001606081526020016000815260200160008152602001600015158152602001600081525090565b6001600160a01b0382166000908152600460208190526040909120015460ff16610e1f5760405162461bcd60e51b815260206004820152601060248201526f13595b58995c881b9bdd08199bdd5b9960821b6044820152606401610255565b6001600160a01b03808316600090815260046020908152604091829020825160c081019093528054909316825260018301805492939291840191610e62906132f9565b80601f0160208091040260200160405190810160405280929190818152602001828054610e8e906132f9565b8015610edb5780601f10610eb057610100808354040283529160200191610edb565b820191906000526020600020905b815481529060010190602001808311610ebe57829003601f168201915b50505091835250506002820154602082015260038201546040820152600482015460ff161515606082015260059091015460809091015292915050565b81600081118015610f2a575060035481105b610f6b5760405162461bcd60e51b8152602060048201526012602482015271125b9d985b1a5908195e1c195b9cd948125160721b6044820152606401610255565b336000908152600460208190526040909120015460ff16610fc35760405162461bcd60e51b81526020600482015260126024820152712737ba10309033b937bab81036b2b6b132b960711b6044820152606401610255565b600154600160a01b900460ff1615610fed5760405162461bcd60e51b8152600401610255906133d7565b6000838152600560205260409020600301546001600160a01b031633146110565760405162461bcd60e51b815260206004820152601f60248201527f4f6e6c7920657870656e73652063726561746f722063616e20757064617465006044820152606401610255565b60008381526005602052604090206006015460ff16156110b85760405162461bcd60e51b815260206004820152601d60248201527f43616e6e6f742075706461746520736574746c656420657870656e73650000006044820152606401610255565b600082511180156110cb575060c8825111155b61110d5760405162461bcd60e51b815260206004820152601360248201527224b73b30b634b2103232b9b1b934b83a34b7b760691b6044820152606401610255565b60008381526005602052604090206001016111288382613451565b50827f83047016ddfe1d662751127a42d4ea02177f06a1751b37ffb62b044d37e038df8360405161115991906130a2565b60405180910390a2505050565b61116e612870565b6111786000612930565b565b611182612c17565b81600081118015611194575060035481105b6111d55760405162461bcd60e51b8152602060048201526012602482015271125b9d985b1a5908195e1c195b9cd948125160721b6044820152606401610255565b60056000848152602001908152602001600020604051806101200160405290816000820154815260200160018201805461120e906132f9565b80601f016020809104026020016040519081016040528092919081815260200182805461123a906132f9565b80156112875780601f1061125c57610100808354040283529160200191611287565b820191906000526020600020905b81548152906001019060200180831161126a57829003601f168201915b50505050508152602001600282015481526020016003820160009054906101000a90046001600160a01b03166001600160a01b03166001600160a01b031681526020016004820180548060200260200160405190810160405280929190818152602001828054801561132257602002820191906000526020600020905b81546001600160a01b03168152600190910190602001808311611304575b505050505081526020016005820180548060200260200160405190810160405280929190818152602001828054801561137a57602002820191906000526020600020905b815481526020019060010190808311611366575b5050509183525050600682015460ff16151560208201526007820154604082015260089091015460609091015291505b50919050565b600280546113bd906132f9565b80601f01602080910402602001604051908101604052809291908181526020018280546113e9906132f9565b80156114365780601f1061140b57610100808354040283529160200191611436565b820191906000526020600020905b81548152906001019060200180831161141957829003601f168201915b505050505081565b60095460609060009080851061148957604080516000808252602082019092529061147f565b61146c612c17565b8152602001906001900390816114645790505b5092509050611745565b600061149585876133c4565b9050818111156114a25750805b60006114ae8783613382565b905060008167ffffffffffffffff8111156114cb576114cb612e70565b60405190808252806020026020018201604052801561150457816020015b6114f1612c17565b8152602001906001900390816114e95790505b50905060005b8281101561173c57600560006009611522848d6133c4565b8154811061153257611532613356565b906000526020600020015481526020019081526020016000206040518061012001604052908160008201548152602001600182018054611571906132f9565b80601f016020809104026020016040519081016040528092919081815260200182805461159d906132f9565b80156115ea5780601f106115bf576101008083540402835291602001916115ea565b820191906000526020600020905b8154815290600101906020018083116115cd57829003601f168201915b50505050508152602001600282015481526020016003820160009054906101000a90046001600160a01b03166001600160a01b03166001600160a01b031681526020016004820180548060200260200160405190810160405280929190818152602001828054801561168557602002820191906000526020600020905b81546001600160a01b03168152600190910190602001808311611667575b50505050508152602001600582018054806020026020016040519081016040528092919081815260200182805480156116dd57602002820191906000526020600020905b8154815260200190600101908083116116c9575b5050509183525050600682015460ff161515602082015260078201546040820152600890910154606090910152825183908390811061171e5761171e613356565b60200260200101819052508080611734906133ab565b91505061150a565b50945091925050505b9250929050565b60085460609060009080851061177257604080516000808252602082019092529061147f565b600061177e85876133c4565b90508181111561178b5750805b60006117978783613382565b905060008167ffffffffffffffff8111156117b4576117b4612e70565b6040519080825280602002602001820160405280156117dd578160200160208202803683370190505b50905060005b8281101561173c5760086117f7828b6133c4565b8154811061180757611807613356565b9060005260206000200160009054906101000a90046001600160a01b031682828151811061183757611837613356565b6001600160a01b039092166020928302919091019091015280611859816133ab565b9150506117e3565b6009818154811061187157600080fd5b600091825260209091200154905081565b61188a612982565b806001600160a01b0381166118b15760405162461bcd60e51b81526004016102559061332d565b6001600160a01b0381166000908152600460208190526040909120015460ff166119115760405162461bcd60e51b81526020600482015260116024820152704d656d626572206e6f742061637469766560781b6044820152606401610255565b600154600160a01b900460ff161561193b5760405162461bcd60e51b8152600401610255906133d7565b3360009081526006602090815260408083206001600160a01b0386168452909152902054806119a05760405162461bcd60e51b81526020600482015260116024820152704e6f206465627420746f20736574746c6560781b6044820152606401610255565b803410156119e75760405162461bcd60e51b8152602060048201526014602482015273125b9cdd59999a58da595b9d081c185e5b595b9d60621b6044820152606401610255565b3360008181526006602090815260408083206001600160a01b03881684528252808320839055928252600490529081206002018054839290611a2a908490613382565b90915550506001600160a01b03831660009081526004602052604081206003018054839290611a5a908490613382565b9091555050600b805460009182611a70836133ab565b9190505590506040518060a00160405280336001600160a01b03168152602001856001600160a01b0316815260200183815260200142815260200142338786604051602001611af09493929190938452606092831b6bffffffffffffffffffffffff1990811660208601529190921b166034830152604882015260680190565b60408051808303601f190181529181528151602092830120909252600084815260078252828120845181546001600160a01b03199081166001600160a01b0392831617835593860151600183018054909516908216179093558484015160028201556060850151600382015560809094015160049094019390935590519086169084908381818185875af1925050503d8060008114611bab576040519150601f19603f3d011682016040523d82523d6000602084013e611bb0565b606091505b5050905080611bf25760405162461bcd60e51b815260206004820152600e60248201526d14185e5b595b9d0819985a5b195960921b6044820152606401610255565b82341115611c8b57600033611c078534613382565b604051600081818185875af1925050503d8060008114611c43576040519150601f19603f3d011682016040523d82523d6000602084013e611c48565b606091505b5050905080611c895760405162461bcd60e51b815260206004820152600d60248201526c1499599d5b990819985a5b1959609a1b6044820152606401610255565b505b60408051848152602081018490526001600160a01b0387169133917f31bebd4f9e31f2efcbdd89389da31be464dfc71a4dc6b5eae9c4e3a11b4cc106910160405180910390a350505050611cdf6001600055565b50565b60056020526000908152604090208054600182018054919291611d04906132f9565b80601f0160208091040260200160405190810160405280929190818152602001828054611d30906132f9565b8015611d7d5780601f10611d5257610100808354040283529160200191611d7d565b820191906000526020600020905b815481529060010190602001808311611d6057829003601f168201915b5050506002840154600385015460068601546007870154600890970154959692956001600160a01b03909216945060ff16925087565b60088181548110611dc357600080fd5b6000918252602090912001546001600160a01b0316905081565b611de5612870565b600154600160a01b900460ff1615611e0f5760405162461bcd60e51b8152600401610255906133d7565b600854603211611e615760405162461bcd60e51b815260206004820152601760248201527f4d6178696d756d206d656d6265727320726561636865640000000000000000006044820152606401610255565b611e6b82826129ac565b6040516371bb7d2f60e11b81526001600160a01b0383811660048301523060248301527f0000000000000000000000000000000000000000000000000000000000000000169063e376fa5e90604401600060405180830381600087803b158015611ed457600080fd5b505af1925050508015611ee5575060015b505b5050565b611ef3612870565b600154600160a01b900460ff16611f5c5760405162461bcd60e51b815260206004820152602760248201527f4d7573742062652070617573656420666f7220656d657267656e6379207769746044820152661a191c985dd85b60ca1b6064820152608401610255565b4780611fa15760405162461bcd60e51b81526020600482015260146024820152734e6f2066756e647320746f20776974686472617760601b6044820152606401610255565b6000611fb56001546001600160a01b031690565b6001600160a01b03168260405160006040518083038185875af1925050503d8060008114611fff576040519150601f19603f3d011682016040523d82523d6000602084013e612004565b606091505b5050905080611ee75760405162461bcd60e51b815260206004820152601b60248201527f456d657267656e6379207769746864726177616c206661696c656400000000006044820152606401610255565b3360009081526004602081905260408220015460ff166120ac5760405162461bcd60e51b81526020600482015260126024820152712737ba10309033b937bab81036b2b6b132b960711b6044820152606401610255565b600154600160a01b900460ff16156120d65760405162461bcd60e51b8152600401610255906133d7565b600084116121265760405162461bcd60e51b815260206004820152601760248201527f416d6f756e74206d75737420626520706f7369746976650000000000000000006044820152606401610255565b6000835111801561213957506014835111155b6121855760405162461bcd60e51b815260206004820152601a60248201527f496e76616c6964207061727469636970616e747320636f756e740000000000006044820152606401610255565b60008551118015612198575060c8855111155b6121e45760405162461bcd60e51b815260206004820152601a60248201527f496e76616c6964206465736372697074696f6e206c656e6774680000000000006044820152606401610255565b60005b835181101561233b576004600085838151811061220657612206613356565b6020908102919091018101516001600160a01b031682528101919091526040016000206004015460ff166122725760405162461bcd60e51b8152602060048201526013602482015272125b9d985b1a59081c185c9d1a58da5c185b9d606a1b6044820152606401610255565b600061227f8260016133c4565b90505b84518110156123285784818151811061229d5761229d613356565b60200260200101516001600160a01b03168583815181106122c0576122c0613356565b60200260200101516001600160a01b0316036123165760405162461bcd60e51b8152602060048201526015602482015274111d5c1b1a58d85d19481c185c9d1a58da5c185b9d605a1b6044820152606401610255565b80612320816133ab565b915050612282565b5080612333816133ab565b9150506121e7565b50600083518561234b9190613527565b9050600084518661235c919061353b565b90506000855167ffffffffffffffff81111561237a5761237a612e70565b6040519080825280602002602001820160405280156123a3578160200160208202803683370190505b5090506000805b875181101561243f57848382815181106123c6576123c6613356565b602002602001018181525050838110156124065760018382815181106123ee576123ee613356565b6020026020010181815161240291906133c4565b9052505b82818151811061241857612418613356565b60200260200101518261242b91906133c4565b915080612437816133ab565b9150506123aa565b5087811461244f5761244f61354f565b6003805460009182612460836133ab565b90915550604080516101208101825282815260208082018e81528284018e9052336060840152608083018d905260a08301889052600060c084018190524260e085015261010084018d905285815260059092529290208151815591519293509160018201906124cf9082613451565b506040820151600282015560608201516003820180546001600160a01b0319166001600160a01b039092169190911790556080820151805161251b916004840191602090910190612c71565b5060a08201518051612537916005840191602090910190612cd6565b5060c082015160068201805460ff191691151591909117905560e08201516007820155610100909101516008909101556009805460018101825560009182527f6e1540171b6c0c960b71a7020d9f60077f6af931a8bbf590da0223dacf75c7af018290555b885181101561274257336001600160a01b03168982815181106125c1576125c1613356565b60200260200101516001600160a01b031614612730578381815181106125e9576125e9613356565b6020026020010151600660008b848151811061260757612607613356565b60200260200101516001600160a01b03166001600160a01b031681526020019081526020016000206000336001600160a01b03166001600160a01b03168152602001908152602001600020600082825461266191906133c4565b9250508190555083818151811061267a5761267a613356565b6020026020010151600460008b848151811061269857612698613356565b60200260200101516001600160a01b03166001600160a01b0316815260200190815260200160002060020160008282546126d291906133c4565b925050819055508381815181106126eb576126eb613356565b602002602001015160046000336001600160a01b03166001600160a01b03168152602001908152602001600020600301600082825461272a91906133c4565b90915550505b8061273a816133ab565b91505061259c565b50336001600160a01b0316817fdb0debf4b1618503c6e2e44996a5479eee196e1a5959982dc7e814d15674817a8b8d60405161277f929190613565565b60405180910390a39998505050505050505050565b600a818154811061187157600080fd5b6127ac612870565b6001600160a01b0381166127d657604051631e4fbdf760e01b815260006004820152602401610255565b611cdf81612930565b6001600160a01b03811660009081526004602081905260408220015460ff1661283d5760405162461bcd60e51b815260206004820152601060248201526f13595b58995c881b9bdd08199bdd5b9960821b6044820152606401610255565b6001600160a01b0382166000908152600460205260409020600281015460039091015461286a9190613586565b92915050565b6001546001600160a01b031633146111785760405163118cdaa760e01b8152336004820152602401610255565b6128a5612bc2565b6001805460ff60a01b191690557f5db9ee0a495bf2e6ff9c91a7834c1ba4fdd244a5e8aa4e537bd38aeae4b073aa335b6040516001600160a01b039091168152602001610816565b6128f5612bec565b6001805460ff60a01b1916600160a01b1790557f62e78cea01bee320cd4e420270b5ea74000d11b0c9f74754ebdbfc544b05a2586128d53390565b600180546001600160a01b038381166001600160a01b0319831681179093556040519116919082907f8be0079c531659141344cd1fd0a4f28419497f9722a3daafe3b4186f6b6457e090600090a35050565b6002600054036129a557604051633ee5aeb560e01b815260040160405180910390fd5b6002600055565b6001600160a01b0382166129d25760405162461bcd60e51b81526004016102559061332d565b6001600160a01b0382166000908152600460208190526040909120015460ff1615612a375760405162461bcd60e51b81526020600482015260156024820152744d656d62657220616c72656164792065786973747360581b6044820152606401610255565b60008151118015612a4a57506020815111155b612a965760405162461bcd60e51b815260206004820152601760248201527f496e76616c6964206e69636b6e616d65206c656e6774680000000000000000006044820152606401610255565b6040805160c0810182526001600160a01b0384811680835260208084018681526000858701819052606086018190526001608087018190524260a08801529381526004909252949020835181546001600160a01b031916931692909217825592519192909190820190612b099082613451565b50604082810151600283015560608301516003830155608083015160048301805460ff191691151591909117905560a090920151600590910155600880546001810182556000919091527ff3f7a9fe364faab93b216da50a3214154f22a0a2b415b23a84c8169e8b636ee30180546001600160a01b0319166001600160a01b03851690811790915590517fac4f9610b174640b0a902ce555faa384cc9c9d291750f76e476f26f97bd079b490610bd290849042906135ad565b600154600160a01b900460ff1661117857604051638dfc202b60e01b815260040160405180910390fd5b600154600160a01b900460ff16156111785760405163d93c066560e01b815260040160405180910390fd5b60405180610120016040528060008152602001606081526020016000815260200160006001600160a01b03168152602001606081526020016060815260200160001515815260200160008152602001600080191681525090565b828054828255906000526020600020908101928215612cc6579160200282015b82811115612cc657825182546001600160a01b0319166001600160a01b03909116178255602090920191600190910190612c91565b50612cd2929150612d11565b5090565b828054828255906000526020600020908101928215612cc6579160200282015b82811115612cc6578251825591602001919060010190612cf6565b5b80821115612cd25760008155600101612d12565b80356001600160a01b0381168114612d3d57600080fd5b919050565b600060208284031215612d5457600080fd5b612d5d82612d26565b9392505050565b6000815180845260005b81811015612d8a57602081850181015186830182015201612d6e565b506000602082860101526020601f19601f83011685010191505092915050565b6001600160a01b038716815260c060208201819052600090612dce90830188612d64565b6040830196909652506060810193909352901515608083015260a09091015292915050565b600060208284031215612e0557600080fd5b5035919050565b602080825282516001600160a01b03168282015282015160c06040830152600090612e3a60e0840182612d64565b905060408401516060840152606084015160808401526080840151151560a084015260a084015160c08401528091505092915050565b634e487b7160e01b600052604160045260246000fd5b604051601f8201601f1916810167ffffffffffffffff81118282101715612eaf57612eaf612e70565b604052919050565b600082601f830112612ec857600080fd5b813567ffffffffffffffff811115612ee257612ee2612e70565b612ef5601f8201601f1916602001612e86565b818152846020838601011115612f0a57600080fd5b816020850160208301376000918101602001919091529392505050565b60008060408385031215612f3a57600080fd5b82359150602083013567ffffffffffffffff811115612f5857600080fd5b612f6485828601612eb7565b9150509250929050565b600081518084526020808501945080840160005b83811015612fa75781516001600160a01b031687529582019590820190600101612f82565b509495945050505050565b600081518084526020808501945080840160005b83811015612fa757815187529582019590820190600101612fc6565b600061012082518452602083015181602086015261300282860182612d64565b91505060408301516040850152606083015161302960608601826001600160a01b03169052565b50608083015184820360808601526130418282612f6e565b91505060a083015184820360a086015261305b8282612fb2565b91505060c083015161307160c086018215159052565b5060e083810151908501526101009283015192909301919091525090565b602081526000612d5d6020830184612fe2565b602081526000612d5d6020830184612d64565b600080604083850312156130c857600080fd5b50508035926020909101359150565b6000604082016040835280855180835260608501915060608160051b8601019250602080880160005b8381101561312e57605f1988870301855261311c868351612fe2565b95509382019390820190600101613100565b50509490940194909452949350505050565b6040815260006131536040830185612f6e565b90508260208301529392505050565b87815260e06020820152600061317b60e0830189612d64565b6040830197909752506001600160a01b03949094166060850152911515608084015260a083015260c09091015292915050565b600080604083850312156131c157600080fd5b6131ca83612d26565b9150602083013567ffffffffffffffff811115612f5857600080fd5b600080604083850312156131f957600080fd5b61320283612d26565b915061321060208401612d26565b90509250929050565b6000806000806080858703121561322f57600080fd5b843567ffffffffffffffff8082111561324757600080fd5b61325388838901612eb7565b95506020915081870135945060408701358181111561327157600080fd5b8701601f8101891361328257600080fd5b80358281111561329457613294612e70565b8060051b92506132a5848401612e86565b818152928201840192848101908b8511156132bf57600080fd5b928501925b848410156132e4576132d584612d26565b825292850192908501906132c4565b989b979a509798606001359750505050505050565b600181811c9082168061330d57607f821691505b6020821081036113aa57634e487b7160e01b600052602260045260246000fd5b6020808252600f908201526e496e76616c6964206164647265737360881b604082015260600190565b634e487b7160e01b600052603260045260246000fd5b634e487b7160e01b600052601160045260246000fd5b8181038181111561286a5761286a61336c565b634e487b7160e01b600052603160045260246000fd5b6000600182016133bd576133bd61336c565b5060010190565b8082018082111561286a5761286a61336c565b60208082526012908201527110dbdb9d1c9858dd081a5cc81c185d5cd95960721b604082015260600190565b601f821115611ee557600081815260208120601f850160051c8101602086101561342a5750805b601f850160051c820191505b8181101561344957828155600101613436565b505050505050565b815167ffffffffffffffff81111561346b5761346b612e70565b61347f8161347984546132f9565b84613403565b602080601f8311600181146134b4576000841561349c5750858301515b600019600386901b1c1916600185901b178555613449565b600085815260208120601f198616915b828110156134e3578886015182559484019460019091019084016134c4565b50858210156135015787850151600019600388901b60f8161c191681555b5050505050600190811b01905550565b634e487b7160e01b600052601260045260246000fd5b60008261353657613536613511565b500490565b60008261354a5761354a613511565b500690565b634e487b7160e01b600052600160045260246000fd5b82815260406020820152600061357e6040830184612d64565b949350505050565b81810360008312801583831316838312821617156135a6576135a661336c565b5092915050565b6040815260006131536040830185612d6456fea2646970667358221220a44e91cf8fc640365e7341cff6d92100f1d1031c67c6e6c085f60f4b278ee67f64736f6c63430008140033",
  "linkReferences": {},
  "deployedLinkReferences": {}
}